:10100000FFFFFFFFFFFFFFFFFFFFFFFFFFFFFFFFF0
:2010100028420020519D0000FDD00000FDD00000FDD00000FDD00000FDD00000FDD000007A
:1C103000FDD00000FDD00000FDD00000FDD00000FDD00000FDD00000CBD6000035
:20104C002DE9FE43AF4C0F460646F80B80F03581B80880F0C7806069B90F67D2A07A0028E5
:20106C0048D1380948D30025657001262672284605F0BBFDA4480DF081F9A4492A4604F166
:20108C004C000DF05AFB607901281AD1A079C0B99F4E306870B10CF0C3FE6169236A3268D3
:2010AC00401A000BE061C018B0EBC21F28BF256208D2206204F1C8004FF000510CF0EAFD30
:2010CC0031E0667104F1380140F60900088094F8450000F0F00040F0010084F84500658798
:2010EC0094F8440000F0F00084F84400E563894E316018E0380914D2B80BC0F0FB8004F1C2
:20110C0028000DF039FB061C08D0706830B17568F068B6F91C1082A20CCAA84727F400574C
:20112C00E8E00020A07227F00807E3E0D8B104200CF0FEF8B8B10CF073FEA06161698142BD
:20114C0026BF401A401E401A000BF060F06840F6C41100F58D708142F06003D340F2EE22B1
:20116C00824200D9F1600025D6F818C06561BCF1000F0FD094F8450010F00F0F0AD1708C83
:20118C0040F60901814205D167A20CCA30466FF48071E047604904F14C002A460DF0CDFA7C
:2011AC00A07950B10220ADF8000068460BF0C0FEA571BDF80800A4F8A00001206070207942
:2011CC00A846401C2071192084F807800CF0E2FF756925B156A20CCA30464146A84727F08A
:2011EC00005787E004F1300948460DF0C5FA061C5AD009F078FE4FF00008B269C6F818803A
:20120C007068B8B1F07F42F00202002300F00700401E07D0401E03D0801E06D146A002E01F
:20122C0047A000E048A090E80C007568F068B6F91C10A8470DF03EF90546B4F93600401CB2
:20124C006FF31F30E086206B1F30017801F07F01017048460CF00AFC28460DF06BFAF0687E
:20126C00B0F99410B4F9362091421DD1217801291AD090F8965095B9056885B1E16809688B
:20128C00B1F1FF3F10D0254909687030B5FBF1F10DF098FAF06870300CF07AFD04E080F81B
:2012AC009680404607F036F848460DF065FA27F0020708B147F002071CE00DF0FBF801462B
:2012CC0004F12C000DF058FA0646B56908460DF031FAA8080CD25EB1B069A843B061706828
:2012EC0030B12A46F068B6F91C1075680023A84727F4804727B104F1C80039460CF0CAFCB7
:20130C00BDE8FE83381400207574000075CC0000F42C0020001004403931000010F3000004
:20132C0000000000200000000000000000000002000000000000000400000000000000106B
:20134C00000000000000004000000000000000202DE9FE430646DFF8DC82DFF8DC92B278DA
:20136C000024101C00F03581801E00F00D81401E012840F2E180801E00F0A880401E7BD0D6
:20138C00401E59D0083800F04681801E40F046814546B08895F83E70ADF80000052F45D042
:2013AC0001208DF80A0005F1CC000DF0E9F995F83E0001281BD0042819D0032806D00228B1
:2013CC0004D0F28831897089B38907E0B5F84020B5F84210B5F84400B5F84630ADF80220F6
:2013EC00ADF80410ADF80600ADF8083020E0B5F84000F1888842D8BF081CADF80200318954
:20140C00B5F842008842D8BF081CADF804007189B5F844008842D8BF081CADF80600B5F8DB
:20142C004630B0898342D8BF031CDDE78DF80A4068460CF0BBFFF1E0454605F1F0000DF040
:20144C009FF97078002840F0E980F088E882308928837089688305F1CC000CF06BFE0028C6
:20146C0040F0DC80AB6A002B00F0D8801B68E88A298B6A8B9847D1E0B0880BF01DFB454648
:20148C002146062205F1380005F076FBEC822C836C83B079687305F1CC000DF071F905F1EE
:2014AC00F0000DF06DF901244FF6FF706F79A8824FB9B079082814BF04200520A8702046E7
:2014CC000CF04CFBAAE00320A870A7E0707858BB311D0A68454605F1380002608988818089
:2014EC000627AF707089A882F089E882308A2883708A6883F0784446287394F83E000128C4
:20150C0018BF02280AD11F2008F0B2FF4FF47A71024604F1CC00514309F07AFBF07872895F
:20152C00311D09F0CDFA7BE0707831286FD14D4604202870204623E07778002F67D145461C
:20154C00698AA878032A13D02A796F7921B9012A14BF6C712C7106E0174304D005F1A800CD
:20156C0009F056FBA878072814BF0420062007E0062807D02879002808BF0324DAD002203A
:20158C00A8704DE00724D5E77078751C00283ED14246F7789078D1799FB9022816D0072883
:2015AC0014D0062802D1517901290FD103280DD002F1A8000CF0BEFD40B901200CF0CEFA2E
:2015CC0004E08732204607F0E5FC28702878F0B924E07078D8B945460220102105F14802A8
:2015EC0009F0BEFE0320102105F1580209F0B8FEF61C05F12C00B7883168878005F1680264
:20160C0001600120A979A87007F0C4FC40B108204D46287004E0B0880CF0BCFE012C06D131
:20162C004546686A18B1016809B1A8788847BDE8FE83C046FC080020FE0800202DE9F041A9
:20164C00A0F2013416460D460027022C40F2E6808749DFF82082884B884A241F0F2C04D9D2
:20166C00143C4AD0A41E1CD011E0DFE814F0B400AF00E900D900A800A100D700990092001A
:20168C00100010008A00800075006C006200282805DA022D03D1318809F074FCE3E0022791
:2016AC00E2E0012D40F0BA800A469078012800F0B380D1783078D07081B9002800F0D48049
:2016CC001078012800F09A80042800F09780062800F09480052800F09180C5E0307800283B
:2016EC0040F0C2801078032800F09380072800F09080052800F08D80B6E0012D40F08E805B
:20170C003078012840F08A80444604F1F0000CF011FD60B904F13E01384605F079FC071CE1
:20172C0040F0A28004F1CC000DF02AF89CE016279AE0022D72D130880A286FDBB0F5486F36
:20174C006CDC194611E0022D68D13088B0F5FA7F64DA1946088087E0022D5FD130880628D6
:20176C005CDBB0F5486F59DC1146891CF2E7022D54D13088062851DBB0F5486F4EDC11467D
:20178C00E8E7012D4AD13078062847DA1146891E0CE0012D42D1307804283FDA093105E0F7
:2017AC00012D3BD13078082838DA083108705BE0012D33D13078042830DAC91DF6E7012D0C
:2017CC002CD13078042829DC891DEFE7022D25D130881031BEE7012D20D10A46D078012808
:2017EC001AD091783078907061B900283CD01078012803D0042818BF052835D101200CF01D
:20180C00ADF931E0307878BB1078022818BF05282AD10CF027FC27E0122725E0182723E0D3
:20182C0008F1870439461F22204605F0A5F931462A46204604F04EF988F8075038460EE094
:20184C0008F1680439461F22204605F095F931462A46204604F03EF988F806500120294690
:20186C00224607F097FB07463846BDE8F081C046FE080020FC080020400900203C0900206C
:20188C002DE9F04F0128ADF1140D40F0F280DFF81492D9F8DC00012840F0E9800220C9F88E
:2018AC00DC000CF0B7FC0290012008F083F820B101210646C9F8DC10D5E00CF093FC0390AC
:2018CC006E484FF00008C0F8008001200BF030FD012818BFCDF8008004D1404607F092F95C
:2018EC000120009066486E4CC0F800801934D4F8FF0F11200CF096FD00280CBF46460126FE
:20190C0010200CF08FFD08B146F002060F200CF089FD08B146F004060B200CF083FD30B1DA
:20192C00584800685849006B0246088890470A200CF078FD0028404618BF01204FF0805B7D
:20194C000BF5DC7528B128685049006B0246088890474F480127076028688069014646F0F2
:20196C00200088474B4807600CF056FD00F001010191400815D248480CF0A4FC8246BAF1D1
:20198C00040FF8D0BAF1010F06D1DBF8D801406802464148032190474049086820F00300A2
:2019AC000860404600F084F92868D4F8FF1F806B8047019801280ED0BAF1010F06D1DBF88F
:2019CC00D801406802463448394690473349086840F0030008602A48076028684069014680
:2019EC00304688470B200CF01DFD28B128682649C06A0246088890470A200CF013FD28B195
:201A0C0028682249C06A024608889047204807600322C9F8DC201F4BC3F800802868406B55
:201A2C000146304688470128F8D1042007F0C2FF124807601A48D4F8FF1F01688909FCD369
:201A4C000098012802D1384607F0DCF80CF0DEFC082007F0AFFF06460398C9F8DC7009F00D
:201A6C0001FD06F015FB02980AF0DAFF02E0042600E00126304605B0BDE8F08F0C400940F2
:201A8C0000022243B80100100EEA00000AEA00002820086080010443004003402422084095
:201AAC00141009408C1A00202DE9F043ADF11C0D07F000F87A4C04F1280004F16C0104F0AF
:201ACC0057F8DFF8E081E06041460CF0F1FD0AF03BFD04F134000CF011FC734D04264FF431
:201AEC007A7200232061294604F18800009607F011FD6E4A102000232946009004F1AC0018
:201B0C0007F008FD1F20012109F03CFA08270020ADF806004FF44871ADF80C1001258DF8CB
:201B2C00045081468DF8086001AAADF80A706420ADF80E902946ADF8100040F20530FFF77F
:201B4C007DFD40F2063002210DF10602FFF776FD4FF442701B2104F14E02FFF76FFD04F138
:201B6C00400240F207300E21FFF768FD4FF44470294602AAFFF762FD40F2113002210DF129
:201B8C000A02FFF75BFD40F21230022103AAFFF755FD40F2133002210DF10E02FFF74EFD6C
:201BAC004FF44570022104AAFFF748FD0CF004FC0620A02109F0E6F90720A02109F0E2F99E
:201BCC003846A02109F0DEF90920A02109F0DAF9484605908DF819008DF8185003278DF8D7
:201BEC001B50314605AA8DF81A704FF4816009F095F94FF48060294606AA09F08FF940F299
:201C0C00024029460DF1190209F088F940F2034029460DF11A0209F081F940F2064029461C
:201C2C000DF11B0209F07AF90CF033FD0CF09AFD0CF0CEF807F048FC0AF0A0FA05F04EF886
:201C4C00A0707F2814BF0A200F20052108F036F803F05EFA30B900F083FF18B9A07800F0CA
:201C6C00BF00A0700AF028FE0AF09EFA0AF070FA06F04AFF07F002FC0AF0F6FD0BF0B8F9A6
:201C8C000CF050FA0AF004FE0BF058FD0AF050F8E06841460CF00CFD07B0BDE8F083C046BB
:201CAC0020050020D9DA0000F1DA000040771B002DE9F84F82467A48DFF8D8913538006887
:201CCC00800880F0D8800AF0DFFC054678480830D0F8008000244FEA2876761C5FEA98508A
:201CEC000AD2C5F13E0015F10A0F4FEAE000D8BF08208642B8BF061C634FD7F87C01C0F3FF
:201D0C0004600CF0D8FA83463868C0F304400CF0D2FA06EB0B020090162A05DA12F10A0F94
:201D2C00B8BF6FF0090200E01522584B584F02F01F0141F4F8511980396811F0030F18BFA1
:201D4C000124C90828BF44F00204BAF1000F18BF44F00404494691F90730EB1A052B04DA30
:201D6C008B79A34208BF888864D0DFF82CE10F2DA5F10F0C25DB0CEB0513A3F1F00C4FEABA
:201D8C002C27072F88BF07273E46062E88BF06265EF82600042303EB86037646F3581B1AB8
:201DAC0003F0FF06E00824BFC3F307200644A00824BFC3F307400644600828BF06EB1366A2
:201DCC0001E0002637465EF827E0E0080EF0FF0324BFCEF307200344A00824BFCEF3074089
:201DEC000344600828BF03EB1E630098B6B2ACEB07277E43801A06F1800603EB1623D8BF77
:201E0C000120342208F0FF0742437A43B2FBF3F04FF6FF72824238BF101C802D80B28880EB
:201E2C0005DA15F1800FB8BF6FF07F0500E07F25CD718C71194A12681F280A604FF000023A
:201E4C0008D340F2FF11814206D24008521C8142FBD301E01F208880124F11490F38000944
:201E6C0042EAC00247EA0200C1F8FB0F0026C1F8FF6FBDE8F88F0D4F0B4E494608203760F6
:201E8C00891D0870BDE8F88F3C1100506E620840242208404C3500209C1300500820094098
:201EAC003500094000E7A48030100940FDFDA400AC3F00502DE9F0411C4615468C4208BF92
:201ECC00854282BF00230022E5E0002C08BF002D0AD100290EBF00286FF000006FF000010C
:201EEC0000F0E1F8BDE8F0815FF000085FF0000E002C08BF8D429CBF2C1C0025070C47EA75
:201F0C0001470E0CB44208BFBD429EBF5FEA044444EA15445FEA0545070A47EA01670E0ACD
:201F2C00B44208BFBD429EBF5FEA042444EA15645FEA0525470847EAC1774E08B44208BF26
:201F4C00BD4200F29380870847EA81778E08B44208BFBD427CD8C70847EA4177CE08B4428F
:201F6C0008BFBD4266D8070947EA01770E09B44208BFBD4250D8470947EAC1674E09B442A7
:201F8C0008BFBD423AD8870947EA81678E09B44208BFBD4224D8C70947EA4167CE09B442EF
:201FAC0008BFBD420DD8E60146EA5566EF01B14208BFB84201D3C01BB14158EB08085EEBB7
:201FCC000E0EA60146EA95664FEA8517B14208BFB84201D3C01BB14158EB08084EEB0E0E35
:201FEC00660146EAD5666F01B14208BFB84201D3C01BB14158EB08084EEB0E0E260146EA3F
:20200C0015762F01B14208BFB84201D3C01BB14158EB08085EEB0E0EE60046EA5576EF001C
:20202C00B14208BFB84201D3C01BB14158EB08084EEB0E0EA60046EA9576AF00B14208BF4D
:20204C00B84201D3C01BB14158EB08084EEB0E0E660046EAD5766F00B14208BFB84201D359
:20206C00C01BB14158EB08085EEB0E0EA14208BFA84201D3401BA14158EB08085EEB0E0E72
:20208C00A34208BFAA423EBF2D0A45EA0465240A89D3734642461E4617460B460246314634
:2020AC003846BDE8F08170472DE9F84381460CF0A7F9002100B901216B4E30680028FCD0D4
:2020CC006C4D01242D1DEF6A346009B10CF09EF9DFF89881C7F3072008F1BC0108600CF0A7
:2020EC008FF9002100B9214630680028FCD02F68346009B10CF08AF9C7F38440C8F8C0001D
:20210C000CF07EF90146002001B92046014630680028FCD0ED69346009B10CF077F9C5F31E
:20212C008120C8F8D000B9F5C061C8F8B81000F0968098F8D80068B9C8F8D410D8F8C00048
:20214C00C8F8C800D8F8BC70C8F8C470D8F8D060C8F8CC60D8F8D410D8F8BC60002954BF33
:20216C0002206FF00100454605F1C8031A6801EB41014018411000EB917002EBA0021A6037
:20218C00D5F8C810C5F8C46000291CDD1E293DDDD5F8CC0030B93429B4BF15391E21C5F88E
:2021AC00C81025E02A29BABFD5F8C8000B381E20C5F8C800D5F8C4003F28B4BF401C3F20A9
:2021CC00C5F8C4001FE0D5F8CC00032812D011F10B0FC6BFD5F8C8000B30201CC5F8C8009B
:2021EC00D5F8C4000028CCBF401E0020C5F8C400032009E011F1150FC6BFD5F8C8001530FF
:20220C00201CC5F8C8000020C5F8CC00B5F8C400174E30214FF47F4208230090304607F0F5
:20222C0015FB009404214FF400321123304607F00DFBB5F8C80004214FF4F802122300900F
:20224C00304607F003FBB5F8CC0020214FF440620A230090304607F0F9FABDE8F88300200B
:20226C0088F8D800BDE8F88300800C408C1A002000A00C4000A00C402DE9F04FADF1840DEC
:20228C0000F0C6FE07F0BEFA0026012804D10BF039FB022808BF012658490868C0F38150CF
:2022AC00012806D151F80C0C0127010E07FA01F00643534800780AF047FC524D2C46286056
:2022CC0038B1FF2204F1400107467F1E01F8012BFBD14D4909684FF0000901F0FF02FE2A6E
:2022EC001BD0DFF824C101F0FF074A460123FF2F0CD0B8427FD903FA07F73E427BD101F06C
:20230C00FF0147EA0909611881F840205CF8041F521C01F0FF07FE2FE9D1092001F08EFEB3
:20232C003948002124220823606001A80CF0F8F84FF0010804F1240001AA8DF81C80414675
:20234C0009F082FB236843B3002794354FF0040BBA4608FA07F0064219D119EA000F04BF3C
:20236C0007F0FF0141F4C04105D0E019264990F8400051F82010254802F070FEF8B24FF0F0
:20238C00FF310AF0FFFF2368C5F800A001E0C5F800B07F1C2D1D9F42DBD30AA8002130223A
:2023AC0008230CF081F80025FF2010210AAB1290174A009504F1080008F02AFB16A828228D
:2023CC00082329460CF0B2F804F1600016AA1C9510491D952B4608F017FD0F4951F80D0CA9
:2023EC0020F4F85040F4005041F80D0C4746C1F8FF7F0A4E376021B0BDE8F08FB43F0050B4
:20240C0059350020B0300020D0E80000007FC767ADD30000FD9B00000D30094008000940AE
:20242C002DE9F843674C04F124000CF0A5F915460E4600900CF03EF805F001078146B6F1FD
:20244C00FF3F0CD1A06A20B9B4F93600401C06B202E0A06AB0F91C60002084F8A3003046B5
:20246C0009F0E4FE0326002800F09B80A16ADFF84081814269D0009FB8422ED03FB100995A
:20248C000A68904209D0096800290091F7D1832E41D048460CF04EF93DE004F1A4000AF0DD
:2024AC0067FE00980168AA0802D20A6802600846002202600091009818B948460CF03AF9C7
:2024CC0028E0C17F41F00401C17768460BF0CEFA0146404608F074FEEDE704F1A4000AF02B
:2024EC0047FEA8083ABF606A00680020606248460CF020F90099C87F40F00400C87768462A
:20250C000BF0B4FA0146404608F05AFE009808B1A808EFD28326E07988B9207A012843D00E
:20252C0024480BF02BFF022104F1C8000BF0B2FB6078012838D020480BF020FF34E004F1E2
:20254C00C80002210BF0A6FB2EE0A90803D3616A009100266662C27F0121B9401143C17721
:20256C000BF040FE0446002F14BF144814480AF0DFFC48460CF0DEF8A80801D3009820B9E8
:20258C00204608F06FFF83260EE0C17F41F00401C17768460BF06AFA0146404608F010FE3E
:2025AC00ECE748460CF0C6F83046BDE8F883C046681400204D100000114500000100020402
:2025CC0001000104381400202DE9FC415E4C574D574EDFF860815A4F94F8E410481E0B28BD
:2025EC0061D8DFE800F07B2C43062343062343067664042907D001220A2945F8212C14BF86
:20260C000220032004E02021012045F8211C024684F8E200002045F8390C0827C5F8FF7FF7
:20262C00C5F8F37F45F8392CBDE8FC81052914BF09200620002584F8E400356070E094F855
:20264C00E1700120383D002FC5F81B0004BF0620002102D00021F160032084F8E40003208C
:20266C0045F8010C31603068800859D294F8E400012503280DD000214046602205230091A8
:20268C0007F0E4F894F8E400062814BF0A200720D1E702200090002160220523404607F0E7
:2026AC00D5F80420C7E70CF0A5F8BDE8FC812249002622480E60012505600E2001F054FC51
:2026CC00022009F041F884F8E45084F8E360BDE8FC81002038600C2578601FE01948006880
:2026EC0000680146202088472C3D41F61D560F2000214FF4C072072345F8010C4046C5F881
:20270C0003600225009507F0A1F8404600214FF4C072072307F0ECFC0120386084F8E45070
:20272C0004F178000BF034FBBDE8FC8139400C4038600C4000A00C402C500C4004800C40A7
:20274C0034600C40A00100108C1A00202DE9F84F9A4693460E4681460BF0ACFE514C009013
:20276C00B4F93610B4F934000AAF401A40F6F8710140082980F28780B4F93400401C6FF33D
:20278C001F30A086B4F934800AF072FC054609F170000AF0EDFCAE6085F81EB0C5F804A09D
:2027AC00A5F81C80C5F80C9097E80C0041A003C8002605F110071040194087E8030004F101
:2027CC002400EE770768002F50D1294608F0F8FC002851D0A9F89480E87F40F08000E877D6
:2027EC0089F89660607A40B1607830B10120A07266722779A671781C207100980BF09AFFBF
:20280C00A06A00284BD1607860BBE079012846D00BF050FE0646207A00BBA86806F0C6FE1F
:20282C00224B2149E2681B68086040B930460BF081FF04F1C80004210BF02CFA2FE0096813
:20284C00D26804F1A400891AB1FBF3F10BF0BAFF04F1A4000BF09CFA30461EE01449012096
:20286C000870F9E719200BF095FC18E004F12400294608F0A5FC48B9B4F9340000F6FF70CF
:20288C006FF31F30A0866FF0010805E0A9F89480E87F40F08000E87700980BF04BFF40467A
:2028AC00BDE8F88F38140020F42C002010F3000058350020F1EFFF9F20000000B0B54568D4
:2028CC0084684F48297BADF1180D012916D0217E627E4C4B2F7E0143009143EA0201019198
:2028EC00494937F0010718BF081CA27E1043029095F88D000322FF2811D00DE0677E217E53
:20290C003843A37E019041F00041009143F000403E49029095F88D00014304220391FE20B9
:20292C004DF82200694605F1900003F021F9C5F89C00002808BF00205FD0287B344951F8E2
:20294C00200001282BD02068B0F1804F14BF22220A22217ED5F89C0009F076FB2068B0F151
:20296C00804F14BF21220922617ED5F89C0009F06BFB2068B0F1804F14BF24220C22A17E36
:20298C00D5F89C0009F060FB95F88D10FF2933D02068B0F1804F14BF23220B2228E020684C
:2029AC00B0F1804F14BF21220922217ED5F89C0009F04AFB2068B0F1804F14BF22220A22D9
:2029CC00617ED5F89C0009F03FFB2068B0F1804F14BF24220C22A17ED5F89C0009F034FB81
:2029EC002068B0F1804F14BF23220B2295F88D10D5F89C0009F028FB012006B0B0BDC04695
:202A0C00000480A0004000800004C0A00020008054E900002DE9F04305466E68AC680F46B2
:202A2C00ADF1340D0BF046FD96F8D910241D012903D10BF07FFE002084E04FF0010986F8F4
:202A4C00D9900BF077FE4FF00008C6F888803869306178697061387E3076387B307338783E
:202A6C003070786886F8A480706078694146092828BF494686F88C10207A01F0DFFA28465D
:202A8C0005F0BCFEE07D86F88D002846FFF716FF50B9207A01F068FA0BF00CFD86F8D980C9
:202AAC000BF048FE45464CE001A84146302208230BF0FAFC06956078CDF80080234A0990B6
:202ACC00217801AB06F11C0007F0A2FF01A84146282208230BF02AFD05951D49606801AAC0
:202AEC004346079006F1380008F08EF9307878B901A84146242208230BF012FD8DF81C9047
:202B0C0006F16C00414601AA08F09EFF114800E0B868B06005F0A2FBC6F8A000307B012852
:202B2C0008D1D6F89C000C490BF0C2FDD6F89C0000B18560094A06F1C40004212B4609F09A
:202B4C00DFFD28460DB0BDE8F083C0462D5700005B8E000037E600005DA600009DE4000036
:202B6C002DE9F84F07F064FA5FEA000800F08A80464E002435680094B8F1000F4ED0C4F3D6
:202B8C000C00002700B90127DFF808A1B9460AF1100A48B928460F21012208F0DDFA284682
:202BAC0000220A2108F0D8FA04F5802005F0E6F90025B8F1000F1FD0291950464FF48072AC
:202BCC0002F088FF28194FF48071524600F5802004F058FA5FEA00080AD0D3464FF480770A
:202BEC001BF8011B009808F057FE7F1E0090F7D105F58075280BDCD03068B9F1000F054656
:202C0C0008D00F21002208F0A7FA284601220A2108F0A2FA04F58054600CADD0B8F1010F26
:202C2C0004D04FF4F42005F0A9F929E028460A21002208F091FA0098002108F02DFE002182
:202C4C0008F02AFE04464FF4F42005F097F9104A0027978197804FF6FF70508014804FF417
:202C6C000046D6800425957346231372537293721021D372FF274FF4F420D77304F002FA96
:202C8C0008F0BAFC4046BDE8F88FC0462C050020C0310020C03100202DE9F041424C474DE6
:202CAC008046C8F38140401E02D0401E2AD025E0284620300168880C20D24FF48040206009
:202CCC003A48D0F802204B0AC1F3033703F0800322F08F02134347EA0302C0F80220D0F8F2
:202CEC0001300E1266F30303C0F80130026801F0E70722F0E70247EA020102E04FF0004155
:202D0C00204601602A4E06F108000068C0F3C0070FB94020A0624FF4007020640BF0D2F960
:202D2C0040F0300084F8C800C8F3815038B3401E03D0401E1ED002211DE001200AF0F8FAC2
:202D4C0007460420394606F073FB04200AF0F0FA8742FAD1366826F07F4008F0C5FC1548EE
:202D6C000068036807214FF06022300E98474FF4806020600321042006F05AFB06E004202E
:202D8C00012106F055FB0C4808F0AEFC284600680B4947F6180700F03F0084F8CB0F094E67
:202DAC000F803068BDE8F08140A00C400A600840A83F0050B4010010BD3786006C130050A7
:202DCC0070B00C402C2009402DE9F0430646880FADF1140D7FD305F06FFA434D4FF0000874
:202DEC001C35C5F800803D4845F81C0C012003F0FCFE3B480BF0C2FA3C48434640F60A02B8
:202E0C0000F13801438790F84440C0F83C8090F845700A8004F0F00480F8444007F0F0049C
:202E2C0044F00104B76880F8454081467B803C1D00E03C1D276817B138888242F9D12160B7
:202E4C00607A00F0F000607209F124000BF094FC80680088D21F82421DD0521C82421AD003
:202E6C0006F120000788B7B196F82C2096F82D70C6F8248002F0F00286F82C2007F0F0023A
:202E8C0042F0010286F82D20C9F83C00487B738400F0F0004873B06869460AF059F8684614
:202EAC000BF008F9B06804F026F928680028FCD0C5F8008001200AF03BFA012808D0607AF3
:202ECC0000F0F00040F00100607206480BF056FAB06845F81C0C05B0BDE8F08301010E040C
:202EEC004D100000658C000000100440381400202DE9F04F0C464549CA7AADF12C0D84469E
:202F0C000592487B09900D7900958A7A488B4B8A0E7B91F805A091F802800492B1F846E0C4
:202F2C0008904A7A088B0392CD7807900A7AC88A02920F6A0690CA79888A01928A79E1469A
:202F4C00A9F54079B9F11D0F10D8DFE809F05B5553514F4D4B494643413F3C3A380F3431E1
:202F6C002E2B2923201E1C0F19181716BCF1280F49DA604607F07CFA21E0099EB246D04609
:202F8C00CDF814801DE00898079007980690DDF818E005E03831086820608888A08032E016
:202FAC0070460AE0B1F8440009E0B1F8420004E0B1F8400001E091F83E00034612E0208054
:202FCC0021E0059804900498039001E03231E2E7039802900298009006E0019A87310DE0FA
:202FEC0068310BE01846EAE7009D0BE02C31D2E7276008E0583100E048311022204602F099
:20300C0069FD00E025700BB0BDE8F08FFC0800202DE9F041444C94F8E700ADF1280D002881
:20302C006FD1394F387B01250021242284F8E7507E6884F8E6000823C4F80C6101A80BF089
:20304C0057FA002604F10C00069601ABADF814602E490796324608F0D1F92D4904F13000A2
:20306C0001AB324608F0CAF92A4904F1540001AB324608F0C3F9B868014628468847DFF856
:20308C009C8025487B7B0078D8F80410C1F381571BB1032F03D184F8E150032F16D0022FF5
:2030AC0014D0012F26D103201D4C009031464FF040521C23204606F0C9FB009531464FF4E7
:2030CC0000720923204606F0C1FB13E0022008F053FB032F0CBF4FF47A7142F2107111489A
:2030EC0000685434B1FBF0F120460BF06BFB20460AF04EFED8F80000C00802D2304608F0FA
:20310C003BFB0AB0BDE8F08164F200002B7C0000B5600000856A000059350020B03F0050AF
:20312C0000A00C4010F300008C1A0020F8B50AF001FC404E3E4F0446A00823D3B96A09B348
:20314C003D4600200B698A69A86204EA0300104340F0020006F1080288610B691068984328
:20316C00106001F1100090E80C0030681A1C9043306005F1300008F023F8022105F1C80002
:20318C000AF088FDB86AA10815D200F110020CCA002122400B40002B08BF002A0BD00169EA
:2031AC0085690C40F8622C434FF48041846107F1C8000AF06FFDB86A002837D107F124047F
:2031CC0020460BF0D9FA051C30D0F868E968884226D1A86806F0EAF917490860E0B906F1DB
:2031EC00080128690A6810430860326805F1100393E80300081C1043306000233361A8680D
:20320C0046F80C0C06F1100000680028FAD020460AF02CFCBD62F8BD086805F07BF8F8BD02
:20322C0007F1C8004FF480510AF034FDF8BDC046381400200C100440F42C0020BFB53F4CBD
:20324C000746401E4AD03C4D401E26D0801E40D0401E3BD0401E02D0801E2DD068E0284628
:20326C000AF068FF10B928460BF088FA04F1AC000BF086FAE0680A210022054607F06CFFCF
:20328C00002228460F2107F067FF00222846152107F062FF04F092FA4AE028460AF04AFF8C
:2032AC0010B928460BF06AFA2046AC300BF066FA00200AF023FC3BE009F03AFB04F10C004C
:2032CC0000680A21012207F047FF31E009F030FB2EE0284624300BF051FA29E00F20052146
:2032EC0006F0ECFC4FF441706946FFF701FE9DF800009DF804308DF808009DF805108DF832
:20330C000E309DF801508DF80F109DF803008DF809509DF802308DF80D0002AA8DF80A309F
:20332C0000208DF80C0008218DF80B0002F004FF27700090BFBDC046A80500202005002067
:20334C002DE9F04104466768A5680E46ADF1380D0BF0B0F897F8DC102D1D012903D10BF05C
:20336C00E9F900205EE04FF0010887F8DC800BF0E1F9F168204604F053FC0028F1D1307875
:20338C00387070687860307A002130220823F86001A80BF089F80694287A00260990234A9C
:2033AC000096696801AB07F1100007F031FB01A82822082331460BF0B9F805941C49E86834
:2033CC0001AA3346079007F12C0007F01DFD01A82422082331460BF0A3F88DF81C8007F1B1
:2033EC006000414601AA08F02FFB387838B907F17C00314601AA08F027FB0E487860C7F8CF
:20340C00BC603E72C7F8C060286800F017FE204606F0D4F9084A07F1C8000421234609F09E
:20342C006FF920460EB0BDE8F081C046B93D0000178A000027E6000051E100003EB50AF015
:20344C003FFD3B4C30B90620641C20700AF0F6FF00203EBD002501206821657003F084FE5B
:20346C002220694601228DF80000372008F044FE08B9052060700AF0E1FF6078002818BFAF
:20348C00281C54D101200C2103F06EFE0220694601220AF02CFF00283CD09DF800004008E0
:2034AC0036D303200DF1010107220AF020FF68B39DF80700000927D29DF802109DF801009C
:2034CC00B4F908501B4B9DF8042040EA012000B268439DF803500112A3F11400B4F90A308A
:2034EC00018445EA02219DF806509DF8052009B259430912B4F90C30418442EA052109B217
:20350C0059430912818407E0032004E0042002E0022000E00120607011208DF80000694697
:20352C0001220A2008F0E8FD0AF088FF60783EBD04240020F02200202DE9F047ADF1180D77
:20354C0001F048FF3A4D4FF0030908274FF6FF78002605F13E0A2C4609F0DCFE20BB009650
:20356C0001A80DF106016A4608F02BFBE0B9BDF80400102814D160789DF8061088420FD127
:20358C0000980188884509D14088C00B08D3042005F12002014607F0E3FE01E006F02CF893
:2035AC00009808B10AF072F9208A41082DD320F0010063792179208253EA010225D073B9CC
:2035CC00207A637A8DF8070005F132018DF808300A680DF109031A608988998001E08DF870
:2035EC000790A07A8DF80F00E37A8DF810300DF107000AF0C9FE38B1636AA77023B11A686F
:20360C0012B1196838468847208A810807D320F0020020825146304603F0FAFC208AC108E3
:20362C009AD320F00400208207F046FB94E7C046FC0800202DE9F84F00298346009106DDBB
:20364C00024600980021401E42F8041BFBD10098DFF8C880DFF8CC900028C8F800B012DD69
:20366C002F48009C0768002537F8020B38B1D9F80000AE003158002088474BF80600641EB0
:20368C0005F10105F0D1284F41460120D7F80080C880B8F1000F22DD4FF0000A00980127EB
:2036AC00002817DDABF104050446002655F8040FB0F1FF3F04D0D9F80010715888472860B9
:2036CC000021B0F1FF3F08BF0121361D641E01EA0707EBD137B90AF1010AC245DEDB04A011
:2036EC0009F084FF0D4900200860BDE8F88FC0467864632E72756E74696D652E53746172F9
:20370C007475703A20276D61785061737365732720657863656564656400C046701A0020E0
:20372C0060F3000064F300005CF30000F8B5154603784278384CC67842EA03228378120126
:20374C0042EA231C0279238842EA06224079B4F90A60120142EA2012C3EB2210D210A2EBE8
:20376C004302B4F90230404353430213B4F904005043801300EBE32000EB800280321212E3
:20378C000A60A11DB4F908404010A0F57A4082105243531373434443641004EBE3044FF40A
:2037AC00004303EBA4430C885C43E71332D0B1F90830B1F90A40D612584304FB06F2174B04
:2037CC00B1F9066040F6354402EB4002300404FB1C3300EBA200021304FB1230C20F19BFE1
:2037EC00B0FBF7F040004000B0FBF7F0B1F91030B1F90E70B1F90C60C20884085243520BA9
:20380C005A4307FB04F35B1303EB2233F11800EB21102860F8BDC04610350020000050C375
:20382C002DE9F041384E307800286AD0374C208910F07F0F00F07F0861D007F007F9344FC9
:20384C0021783D78A0700DB9022930D12279C30913D240081CD307F0A3F906F053FFE07856
:20386C00E188002808BF217812D0002542F21070E57090FBF1F0217809E0521CD0B2022833
:20388C00207105D1E08842F21072B2FBF0F0E060002502293D700AD12089C00907D3FFF7B0
:2038AC00CDFD052821D008B104F07CFC2178E76817B901291AD122E0022909D0022020706A
:2038CC000027277103F09AFD10B1404607F0C6FC2089000A02D3E068401EE06004F114021A
:2038EC000020122104F0DAFE09E0E560002020710127277003F082FD08B100F0C7FA002003
:20390C003070BDE8F081C0465D350020DC2200205B3500202DE9F04706467468B5680AF0D3
:20392C00C9FDD4F88810002963D00AF003FF2968486820F0020048602968486A20F00300A8
:20394C004862D4F8A07068692969084379680968C1F804052968486920F001004861286887
:20396C004FF00108C0F82080304608F005FFD4F88800D0F804900AF09DFD04F1D807824649
:20398C00387850B119F0704F02D1042007F0DCFE022007F0D9FE0020387050460AF0CAFECA
:2039AC00D4F88810087C042803D003200874D4F888102A696869D4F8A0304746104307FA30
:2039CC0000F258680068C2622868B0F1804F14BF0A480B480F68006800258204A7EB925027
:2039EC00401E08603046A268C4F888509047BDE8F0870AF09FFEBDE8F087C0460805002008
:203A0C00380400202DE9F0430646ADF11C0D0AF09FFD07F039FE4FF000090546CDF8009036
:203A2C000AF03CFD30F0010002D00098A84202D16FF0040059E070684C4658B1B0F1FF3F11
:203A4C0005D001A907F008FE30B107464CE04FF0FF3000E02046019009F07AFB019901270F
:203A6C0001EB000800E001936868019900F01AFC00282ED003A807F0B9FAD8B99DF81000B1
:203A8C0002A907F099FA88B9B368BDF808009DF81210059A984748B19DF81270B773BDF8A8
:203AAC000800B081059B33614F4612E00599684608F046FA0198641CB0F1FF3FD4D00028BE
:203ACC00D2D009F045FBB8EB000302D001989842C9D2009905F1080008F022FD24B1686826
:203AEC0004F03AF8641EFAD1384607B0BDE8F083F0B5ADF1340DFFF78BFA304908682822C8
:203B0C00082340F00200086001A800210AF00EFD2B4E2C490524002301AA079406F1C800C6
:203B2C0007F072F900213022082301A80AF0BCFC0025FF271921244AADF81C5001AB0997CE
:203B4C0006F14C00009506F063FF2822082301A829460AF0EBFC1D4901AA2B4606F1FC0046
:203B6C00079407F051F93022082301A829460AF09BFC01241A21164AADF81C4001AB09972A
:203B8C0006F16800009506F043FF12492A4606F1A400134607F032FC0F480AF0EFFBB471A9
:203BAC0086F8A3507571F57135727572B5724FF6FF7075610DB0A6F8A000F0BD00200940EC
:203BCC003814002011DC000075CC0000394B0000B98C00008DC90000114500002DE9FE4F67
:203BEC000CAF3D8883460E4608469846144601A908F0A0FB012808BF01205ED0BDF8040061
:203C0C00DFF8BCA042F6021100274FF0FF09401A40D048F2FF21401A2BD0401E13D0401EF4
:203C2C0036D1002D32D1B8F1020F2DD1207806281DDAF068218801802248F168884231D1BB
:203C4C004FF0020931E00DBBB8F1060F1CDA207810280CDCF0682146424601F03BFFF168FE
:203C6C005046001D88421DD14FF001091DE0802718E05DB9B8F1100F06DCF06821464246E1
:203C8C0001F028FFB94610E00D270BE00B2709E00A2707E00095584643463146224605F02F
:203CAC0043FD0746B9F1FF0F06D05046006818B1016809B1484688473846BDE8FE8FC046E0
:203CCC00B41F0020B01F00207CB50446084603F0D9FC344E02461821304608F089F909F079
:203CEC0043FB40F2FF32002380B22C210090304605F0ACFD0AF0EEF91C210246304608F0FD
:203D0C0077F909F023FB02461421304608F070F909F034FE02461021304608F069F92046E2
:203D2C0003F000FB02460C21304608F061F9204609F00CFE1C4D400040F0200028702046EC
:203D4C0009F010FE40F010002870204609F010F902462821304608F04BF9204609F01AFE56
:203D6C00400040F06000E870204609F01FFEC00040F0800005F8080C204609F023FE800012
:203D8C0040F47C40A5F89300204608F047F902460821304608F02CF94FF48000A5F20911E1
:203DAC0008607CBD00A00C4049A10C4098B53549446809688068496800688847324A0121DE
:203DCC00916140B1237AFF2B05D0FF214009217253D2042149E0207A00284ED0401E17D0C4
:203DEC00401E02D0FD3848D044E05368D4F8B4000370D4F8B400401CC4F8B400D4F8B87028
:203E0C007F1EC4F8B8701CD0012F88BF09212CE0D4F8B0707F1EC4F8B07014D1D4F8B8703E
:203E2C007FB10220D4F8A8102072097C012F4FEA410141F0010142F8041C94BF03210B21AE
:203E4C0014E004210FE0D4F8AC0000785060D4F8AC00022F00F10100C4F8AC0005D2D4F808
:203E6C00B87017B9052100202072022011600AF019FC98BDFF20207298BD04F12C0006F052
:203E8C004FF898BDAC010010042800403348F8B505780AF015F800284FD00120682103F0C1
:203EAC0063F9002859D02E4C0920211D012208700F466B2008F020F900283ED007202071EE
:203ECC00394601226C2008F017F9002835D001261D2039462671324608F00EF900282CD05E
:203EEC004020207139463246382008F005F920B3C020207139463246692008F0FDF8E0B13E
:203F0C0025711F203946324608F0F6F8A8B106202071394632461E2008F0EEF868B129205E
:203F2C002071394632466B2008F0E6F828B1E11C1C20324608F0E0F810B90AF07FFAF8BD41
:203F4C003A20394632460AF0D2F90AF077FA002020700449606907F0DFFBF8BDDD22002069
:203F6C0004240020070006802DE9F84304460AF0A1FA81462D48021992F8ED10491ECFB26A
:203F8C00002F82F8ED704BD12B4D05EB84052E78698836F07F0788461AD1F10911D24FF0EA
:203FAC008054D4F8B801806901464046884704F5DC742068406B0146404688470228F8D10C
:203FCC0021E000EB8800D0F80011002088471AE04FF08054D4F8B801006A01464046884701
:203FEC00D4F8B801806A014640468847D4F8B801006B01464046884701210D4A0D481160DF
:20400C0001688908FCD306F03F003F2801D0FFF7ABFF687800F03F003F2801D0FFF7A4FFDE
:20402C0048460AF087FBBDE8F883C0468C1A00202820086028200840E0E900002DE9F0412E
:20404C0006460AF037FA2D4D8046A91991F8ED00421C002881F8ED204AD1294C04EB860450
:20406C00277807F03F003F2801D0FFF7E7FF607800F03F003F2801D0FFF7E0FF668837F022
:20408C007F001AD1F80911D24FF08054D4F8B801406901463046884704F5DC742068406B7D
:2040AC000146304688470128F8D121E005EB8605D5F80011012088471AE04FF08054D4F853
:2040CC00B801C069014630468847D4F8B801406A014630468847D4F8B801C06A014630463F
:2040EC0088470121074A0848116001688908FCD340460AF01FFBBDE8F081C0468C1A00206C
:20410C00E0E9000028200860282008402DE9F84F0D46064628687468D6F80880002855D07F
:20412C000AF0C8F9D4F8881021B10AF003FB032028744BE001272F74C4F888500AF0FAFA53
:20414C0094F8A40038B194F88D202249D4F89C00114307F0E1FAD5F804A00AF0ABF904F104
:20416C00D80999F80030834653B91AF0704F02D1042007F001FB022007F0FEFA89F8007007
:20418C0058460AF0D7FAD8F80010486840F0020048603046294600F051F9D8F80010486990
:2041AC0040F001004861207830B9616804F16C05284600F077F810B13846BDE8F88F3046BB
:2041CC00FFF7A8FB2846002100F06CF80020BDE8F88FC04600000680294A2DE9F0418046FF
:2041EC000126284816600768002FFCD0294C2A4FC020443C206007F1080001682348890809
:20420C0004D20168090C41F0F00100E072211E4D85F85412002111638768384602F0E6FC85
:20422C0040463946FFF750FD1C48B038816D40F20F226FF31F418A4212D901680068C1F38F
:20424C000363C0F3034003B15B1E072805D006280EBF0720801C00F00F0043EA0010287033
:20426C003846FEF719FD0E4814380068C1680220884740202060064F3E60BDE8F081C04696
:20428C00101009409402224302600840AC3F00509404604244600C40A83F00506C13005099
:2042AC00B40100102DE9F0410D460646B5F1FF3FADF1380D09D045B12B496B4605A82A466F
:2042CC0008F09AFB05A9022001E0002103200391264F8DF8100038682024EFF31188371804
:2042EC0084F31188708980BB002D04BF88F31188002036D009F08EFF06460AF029F90290C4
:20430C00C0F818D007F0C8F8384669460AF002F99DF810000025022802D1039803F0EAFADF
:20432C0088F31188304608F07BFBEFF3118384F31188039810B10AF041FA0395029885614A
:20434C0083F311889DF810000BE07089401E7081039818B10AF032FA0020039088F3118819
:20436C0001200EB0BDE8F081E9C200001CF300002DE9F04115460446A869A060686A9846D5
:20438C000E4608B92A4800686062286A002806BF28480768071C0AF099F8EB69A3B900287C
:2043AC0008BF391C03D03F1841427F1E39400246E161606AE169434603F0F8F82062206AFC
:2043CC00B8B90120BDE8F081002804BF2362391C0BD01B1841425B1E01EA030020623F1A91
:2043EC00E869C019E061E0690140E1614FF0FF306062A6622869E06268692063A86A606346
:20440C00A88DA087A08F012803D10B49C868401CC8602046414602F033FA0346404609F02C
:20442C005DFC002814BFD81C0020BDE8F081C04630F3000034F30000C0230020F8B58C4620
:20444C0045688468DCF8007095F88C10B8B288401FFA80FE2068B0F1804F14BF244B254BD7
:20446C00DCF80820244832B995F88C108E00815905F1A60207E095F88C108E00811951F82D
:20448C00081C7244521E99605A6021683A0143F6F077103A0831174019609A683A439A60E3
:2044AC002368B3F1804F14BF144A154ADCF804C0BCF1000F04BF805904F10E0605D08019FB
:2044CC0050F8100C0EEB0C06761E9060166051609068074397602169D5F8A0606069084312
:2044EC00716809688862586A40F003005862F8BD00050020300400206CE900001005002015
:20450C0040040020042998B54DD1274C04F124000AF032F940B994F8A300400838BFE06833
:20452C0004D3D4F8880000E0C068E06041681F4A09781160416812680978914206D08769BB
:20454C0027B120A20CCA6FF0FF01B847022007F013F91120FFF772FD0120E071E068011DEE
:20456C00007C10B16079012804D00E20FFF766FDE168091D08680E49083007680FB9476841
:20458C001FB10020C8610B4F0F600B4A40F2FF7000271060094C8F6109484C6109F0EEFE78
:2045AC00192005F09BFC98BD38140020D021084000100440510007060000046002000040D8
:2045CC00D52D000000000000000000021EF0040F14BFEFF3098169468869EFF3118102B4A1
:2045EC0000B5DFF89CE0F047284A116801EA000010605DF804EB1EF0080F03D101BC80F3BD
:20460C001188704704BC1EF0040F14BFEFF309816946A1F1200114BF81F309888D464A6067
:20462C004FF08070C8611A488861184B1868086040F201101860704702B401B4EFF314812C
:20464C0000291CBF002282F3148802B402B4DFF834E0F04701BC01BC00281CBF022181F375
:20466C00148801BCDFF820E0F04704484FF08051016001BC80F3118800BF00BF04ED00E0F2
:20468C00618D000087E600003BE7000058240020454600002DE9F8430646B0680D4600F171
:2046AC00080874686868002710B9E868002850D02078012814D109F0FDFED4F8BC1049B17E
:2046CC00D4F8C0108D61C4F8C0500AF033F80120BDE8F883C4F8BC50C4F8C0500AF02AF862
:2046EC00022007F049F804F160004FF0FF318146FFF7D8FDD8F8000005F0CEFB304629468B
:20470C0001F042FC0546D8F8000005F0E7FB207888B9B5F1FF3F08D004F17C004FF0FF31F7
:20472C00FFF7C0FD207A48B110E003202072022007F00AF80AE0B5F1FF3F01D0012705E0BB
:20474C000320207204F12C0005F0EAFB484603F003FA3846BDE8F8832DE9FE4F0CAF3C889F
:20476C0081460D4608469846164601A907F0E2FD012808BF01204DD0BDF80400DFF898A015
:20478C0042F6021100274FF0FF0B401A2ED048F23F11401A32D0401E14D0801E24D10CBB78
:2047AC00B8F1010F1CD130780A2809DBE9680870E9685646701C884220D14FF0020B20E040
:2047CC0080271BE074B9B8F1010F09D13078E9680870E96856468E4210D14FF0010B10E021
:2047EC000D270BE00B2709E00A2707E00094484643462946324604F097FF0746BBF1FF0F38
:20480C0007D05046001D006818B1016809B1584688473846BDE8FE8FF01D00202DE9FE4F01
:20482C000CAF3C8881460D4608469846164601A907F080FD012808BF01204DD0BDF8040046
:20484C00DFF898A042F6021100274FF0FF0B401A2ED048F21F11401A32D0401E14D0401EC4
:20486C0024D10CBBB8F1010F1CD130780A2809DBE9680870E9685646701C884220D14FF0D0
:20488C00020B20E080271BE074B9B8F1010F09D13078E9680870E96856468E4210D14FF04F
:2048AC00010B10E00D270BE00B2709E00A2707E00094484643462946324604F035FF074697
:2048CC00BBF1FF0F07D05046001D006818B1016809B1584688473846BDE8FE8F881E002051
:2048EC002DE9FE4F0CAF3C8881460D4608469846164601A907F01EFD012808BF01204DD03E
:20490C00BDF80400DFF898A042F6021100274FF0FF0B401A2ED048F2FF01401A32D0401EBC
:20492C0014D0401E24D10CBBB8F1010F1CD130781E2809DBE9680870E9685646701C8842E9
:20494C0020D14FF0020B20E080271BE074B9B8F1010F09D13078E9680870E96856468E427E
:20496C0010D14FF0010B10E00D270BE00B2709E00A2707E00094484643462946324604F037
:20498C00D3FE0746BBF1FF0F07D05046001D006818B1016809B1584688473846BDE8FE8F38
:2049AC001C1F00202DE9FE4F0CAF3D8881460E4608469846144601A907F0BCFC012808BFC3
:2049CC0001204DD0BDF80400DFF898A042F6021100274FF0FF0B401A2ED048F27F11401A8E
:2049EC0032D0401E13D0401E24D10DBBB8F1010F1CD120780A2808DBF1680870F168554635
:204A0C008D4221D14FF0020B21E080271CE07DB9B8F1020F0AD1F06821880180F168554698
:204A2C00681C884210D14FF0010B10E00D270BE00B2709E00A2707E000954846434631468B
:204A4C00224604F071FE0746BBF1FF0F07D05046001D006818B1016809B1584688473846AF
:204A6C00BDE8FE8FAC1C00202DE9FE4F0CAF3C8881460D4608469846164601A907F05AFC95
:204A8C00012808BF01204DD0BDF80400DFF898A042F6021100274FF0FF0B401A2ED048F2C7
:204AAC006F11401A32D0401E14D0401E24D10CBBB8F1010F1CD130780A2809DBE968087085
:204ACC00E9685646701C884220D14FF0020B20E080271BE074B9B8F1010F09D13078E968EF
:204AEC000870E96856468E4210D14FF0010B10E00D270BE00B2709E00A2707E000944846E5
:204B0C0043462946324604F00FFE0746BBF1FF0F07D05046001D006818B1016809B1584695
:204B2C0088473846BDE8FE8F44200020F8B509F0C1FC2A4C0746103CD4F89C0010F4602FF9
:204B4C002BD0D4F89C00400CC5B2680807D2A80803D2E80828BF022502E0012500E000254A
:204B6C006E1D70B204F0CCF8D4F89C3005F111010120884023EA00013846C4F89C1009F04E
:204B8C00D9FD04EB8500D0F88C704FB1D4F8880013A20CCA3146B84702E0384609F0CAFD86
:204BAC00D4F89C0020B104F1FC00002109F072F894F8A30080080FD3D4F8987037B1D4F81A
:204BCC00880009A20CCA6FF00101B84794F8A30000F0FD0084F8A300F8BDC04648140020EE
:204BEC00000000000000000800000000000000802DE9F0412D4C0546A41C20781F46904683
:204C0C000E46ADF1380D012803D0FEF771FF012020705EB1B8F1000F6E6007D0C5F808808E
:204C2C0009F048FC617819B109F084FD002038E0491CC9B2617009F07DFD01241FB9684607
:204C4C0009F020F96F46386828607868E860387A2874F8686861386900B1A86100217822A4
:204C6C0005F1200001F088FF05A800212422082309F056FC8DF82C4005F13800002105AA21
:204C8C0006F0E2FE05A800212422082309F030FC05490B9505F17000002205AB06F0AEFB09
:204CAC0028460EB0BDE8F081D5E60000381400201CB52D4C401E02D0401E44D01CBD09F0C1
:204CCC00D5FB400931D32089FF2831D00120694606F0F2FCBDF8000010F07F0F18D0BDF846
:204CEC0000002081022003F08BF809F0E9F8A8B11E48006841F28831B1FBF0F002F0A4FA66
:204D0C0005F01EFDBDF8001041EA0020208105E0BDF800002081002003F072F804F108020F
:204D2C000120022103F0BAFC07E0FF20083420800120FF21022208F0ABF9002012220146FC
:204D4C0008F0A6F91CBD02200DF1020106F0B4FC9DF802002346410001EBC001D98003F1D3
:204D6C00280003F0FBFE1CBDDC22002010F300002DE9FC470AAF3F8882460C4608469946F9
:204D8C00154601A907F0D6FA012808BF01204AD0BDF80400DFF8948042F60211FF26401AA2
:204DAC002ED048F26311401A012827D827BBB9F1010F1FD1BDF804104AF6662000278842AD
:204DCC0002D12978032913DA2978E2681170BDF80410884205D0E1684046884218D13E4660
:204DEC0018E0E1684046401C884211D1012611E080270DE00D270BE00B2709E00A2707E0DA
:204E0C00009750464B4621462A4604F08DFC0746FF2E07D04046001D006818B1016809B12C
:204E2C00304688473846BDE8FC87C04630220020F8B509F0E5FA09F0EFFA044604F00C0052
:204E4C000C2845D0E0081ED207F01CFA234E376805460120014608F0E9F93168694388426C
:204E6C0011D21F4C8220B0FBF7F0291A204609F0A9FC204608F08CFF0120FCF701FD2046FC
:204E8C0008F076F925E0200922D21648610939BF016821F00101016841F0010102460160FC
:204EAC00D2F898004FF0805440F00300C2F89800D4F8B8018069014620208847D4F8B801A3
:204ECC00094C806B2168804701202060206800E030BF09F09BFA02F009FCF8BD10F3000001
:204EEC00981A00208C2108402C200940FEB5FCF7DBFD2B4C002504F1880608F0FDF9002897
:204F0C002FD1009501A80DF106016A4606F042FED0B9BDF80400102807D160789DF8061087
:204F2C00884202D1009809F09BFA009860B108F089FC09E0206908F09BFB071C04D008F08D
:204F4C0075FA384608F042FC206909F001FA0028F0D000F08FF907F03FFEFEF761FC08F0C7
:204F6C00C3FFA088410905D320F01000A08004F091FCA088C1080FD320F004002778A080B2
:204F8C00022F09D1304609F0F9FB2078022803D10F20012104F092FE05F08AF9ADE7C0461A
:204FAC00200500202DE9FF4707F0F6FA2A4C4FF0FF3104F10C0000F053FC2448244D0668ED
:204FCC0024484FF47A77B5FBF6F8B0FBF6F938E0012007F0F9FB404602F036F902A805F083
:204FEC0055FB8246002007F0EFFBBAF1000F1CD002A801A96A46FEF799FB9DF805308DF80A
:20500C0009309DF804208DF808209DF806008DF80A009DF802108DF80D109DF801308DF827
:20502C000C309DF800208DF80B200020062102AA02F076FF60887843401BB0FBF6F002F0E8
:20504C0003F960780128C3D04846F8E710F300008038010040420F00180C0020F8B50D46B6
:20506C00EEB2290824BF26494D40264BB400195985EA01020240C2F3006C234A00EA0507A5
:20508C008143FF323A4000F4E0270A43B7F5E02F01D1510E15D300F4E0215CEA010710D056
:2050AC0002F4E027B7F5A02707D0B7F5803704BF22F4003242F4A02203E022F4803242F456
:2050CC00C0221A51114CC10D04D3A4F18001C5F380528A55000E11D309F0ECF9290E03D21A
:2050EC0001210022B14002E00121B1400A46503423688B431A43226009F01CFBF8BDC046A3
:20510C00006000A000100840007F077F802002407FB504F08DFF041C46D04FF48020102146
:20512C006A4603F0E6FE041C38D00098204E410F01D0864200D200241E4901981F4D8142A0
:20514C0004D829465639814202D226E0000B24D124B3194810216A4603F0CBFE041C1DD0EA
:20516C000098410F01D0864200D200240198010B13D02946814210D384B103F019FD104D74
:20518C00064610214FF4F4202A4603F0B2FE28880024B04208BF012404E000244FF4F4200B
:2051AC0002F0ECFE06F028FA204600907FBDC0460050002001F0010010100400FFFF010032
:2051CC00C031002070B5294C294D012806D028BB21460020491C08F00FFE1FE02146012048
:2051EC0008F00AFE0878022811D0491C002005F065FF28680A210022064605F0ADFF00224E
:20520C0030460F2105F0A8FF07F006FB06E009F02DF94870491C002005F050FF21460878DB
:20522C00012822D1286861780546490834BF002201220A2105F090FF6078800834BF0022E5
:20524C00012228460F2105F087FF6078C00802D207F0E2FA04E0284605F0AEFA05F0CAFA17
:20526C006078000901D302F0DDFA70BD542600202C050020B0B5294C6078410809D320F0A5
:20528C00010060700A20014604F018FD04F0F0FF6078234D810807D320F002002F786070A0
:2052AC00062F01D103F0D6FA2078A178884232D007F04EFAA7782078790803D341083CBF0A
:2052CC000021A180B90803D381083CBF0021E1802978022903D108F011FCA7782078B908C6
:2052EC0008D3810806D22978062903D003F0B2FAA778207810F0030F0DD067B904F1080061
:20530C00054608F017FF28B9284609F037FA0020E080A0802078A070B0BDC0465C25002053
:20532C00200500202DE9F0410E46294990461C4606AF8C4672680878BB8851783F88127899
:20534C00002502EB012242F62321521A29D0521E052A18D9921F0CD0263A34D1072F30D86B
:20536C00C7F10700984298BF83B2674407F1080121E0B84225DBC01B9842D8BF83B2238031
:20538C00DCF804000BE0F06808F0EAFD80B2B84217DBC01B9842D8BF83B22380F06839181C
:2053AC000AE0082F0DD8C7F10800984298BF83B207EB0C010F31238040461A4600F08AFB78
:2053CC0003E0072501E025800A252846BDE8F081741600202DE9FC4707F0F2F8284C0025FC
:2053EC00A5704FF6FF70A08205F082FC234F2A462070012039461346009004F1A80004F0B7
:20540C0089F84FF002082A4604F1CC003946CDF80080134604F07EF804262A4604F1F0007F
:20542C0039460096134604F075F804F14809102248462946E67001F09FFB04F1580A1022B2
:20544C005046294601F098FB04F120073D602572072065721021A0724A46E572404605F0C4
:20546C0065FF03201021524605F060FF30463A46014605F05BFFBDE8FC87C04669DB00007E
:20548C00FC08002038B504464A78284D087800EB0220ADF800006A88BDF8000090423AD1B8
:2054AC00BDF80000891C000108F0CEFC6888AB88401C81B269808B4229D103F00BFEE0B1D4
:2054CC002046002102F00CFC07F0AAFB29780843287006F0F9F908F025F990B128784108F7
:2054EC0005D3AB692146032000229847287810F0060F06D008F006FE03E02046012102F045
:20550C00EFFB00242C7008F069FA6C8038BD204602F01AFE38BD00206880287008F05EFA44
:20552C002046032102F0DCFB38BDC0464C1800202DE9F84F804608781C4616460AAF022849
:20554C0031D02348DFF88C90D1F804B08569102282464946584607F049FC002740B9002DC5
:20556C0033D08AF80140012041463246A8472CE009F110015846102207F038FC10B925B397
:20558C000220F1E709F120015846102207F02EFC90B9012C05D13078002818BF8AF80A007A
:2055AC0013D1802711E048684278007842F6021500EB0220854201D00A2706E0388832463E
:2055CC000090404604F0B0F807463846BDE8F88F4C180020A0E90000264838B550380468BA
:2055EC00B4F1FF3F08BF002408F024FC22481749002510380560012008601549086003F0DB
:20560C0019FD1448006820B1134800682046FEF7E3FD124812490560124C0A686FF35B42EC
:20562C0044EA0200086010490868C0F30130012806D10A680D48104040F400320A600860CA
:20564C000B4908680028FCD138BDC0465C600C400822044380012843000120438C210840CC
:20566C00482003400000390104000940FFFFFCFC0C0068426C130050940460422DE9FE4FD4
:20568C000CAF3D8881468B4608469846144601A906F050FE012808BF01203DD0BDF804009B
:2056AC00DFF878A042F602110026FF27401A21D04AF2C031401A0BD0401E19D1B5B9B8F14C
:2056CC00010F11D12078DBF80C10022708701BE065B9B8F1080F07D12168656850460E30C9
:2056EC000160012745600FE00D260BE00B2609E00A2607E00095484643465946224604F08B
:20570C0013F80646FF2F06D05046006818B1016809B1384688473046BDE8FE8F541D0020B2
:20572C00B0B501468B681C68E26948682262520824D2D0F8A01049680A685D69D2F8041527
:20574C00294206D01C68616A21F002016162C2F80455D2F8042519690A4230D01A68516AC5
:20576C0021F001015162D0F8A0205268196912683830C2F8041504F0D3FBB0BD1C68626960
:20578C0022F001026261D0F88870AFB9626822F0020262601C68626A22F003026262D0F868
:2057AC00A0005A6940681C6900682243C0F80425084606F0E1FFB0BD0846FEF7ABF8B0BDBB
:2057CC00F0B520480127F84201D003F03BFF204D204F214EBD4206D203CD0478A4003459B1
:2057EC00401CA047F6E71D48002800D08047164D164FBD4202D210CDA047FAE7F0BD032544
:20580C001BE0416808300A1C2A400BD11A1C2A40AB4305D0046804300C600431043BF9D187
:20582C00131C05D0047801300C700131013BF9D1021C2A4001D0A84304300368002BE0D138
:20584C007047C046FFFFFFFF000000000000000050FF000080FF000018FF0000D19100003C
:20586C002DE9F0470F46064608F0D4FCEFF311898246202080F31188D6F80880474533D0F1
:20588C001D481E4B0468002F05D49C690125BD4004EBC70401E0E4180025307D01281AD115
:2058AC00304608F05CFD306C08F052FD18B1F1685868884358601869864204D020463146D3
:2058CC0008F028FE04E020685C61314608F080FF586828435860B760F5603464002F44BF6E
:2058EC00002058610120188189F31188504607F097F84046BDE8F08724F30000C02300201C
:20590C002DE9FF41244D8046681C00780E46082814BF04240024084604F00AFC684601F068
:20592C0019FFA4190026E178A0786E8000EB01202E7080106946A880204602F0D7FB18B3FB
:20594C00204608F0C6FCE861000BE88008F052F8A8B1E888A988C4B200EB2120C7B2A7421F
:20596C0008DB3F1B7F1C204608F09FFE641CE4B27F1EF8D14046314602F0E6FB08E040468E
:20598C00022102F0ADF903E04046694601F06AF90090BDE8FF81C0464C180020B0B5244CC0
:2059AC002278E1889308084603D3491C401CE18080B2A18852080F4603D3491C7F1CA180F6
:2059CC00BFB2062F11DB06280FDB04F10800054608F0B0FB58B3284608F0D2FE0020A080A5
:2059EC00E080607840F001001CE003280BDA38431DD104F10800044608F09CFBB8B1204618
:205A0C0008F0BEFEB0BD97B904F10800054608F091FB60B1284608F0B3FE0020E0806078BD
:205A2C0040F0020060700348006802F095F8B0BD5C2500202805002010B50020442101F090
:205A4C0093FB002808BF002440D0214C1F200222214608F04CFC002835D021880806000C22
:205A6C0040EA2120782815D11020208021460220024606F041FB30B302202146024608F0AA
:205A8C0036FC00B321880806000C40EA2120B0F5805F01D0208016E00020208021460220B3
:205AAC00024606F029FB70B102202146024608F01EFC40B121880806000C50EA21202080A5
:205ACC0008BF012400D0002408F0B8FC204610BD44350020002A4AD05FEA000C8B071CD14A
:205AEC00830722D1102A08D370B4103A78C978C0103AFBD270BC103238D0042A2CD3082A35
:205B0C0005D30C2A24BF08C908C008C908C008C908C092072AD0920F22E00B780370491C2C
:205B2C00401C521E22D08B07F7D1C30714D18307D8D0121F12D308C903801B0C4380001DEF
:205B4C00121FF8D20AE008C903701B0A43701B0A83701B0AC370001D121FF4D2121D05D0B0
:205B6C000B780370491C401C521EF9D1604670472DE9F843224D884606464FF0FF3105F18C
:205B8C0024008146FEF78EFB00200CE0FF2909D02A688A4204D905EB8101D1F894700FB149
:205BAC00002627E0401CB8F1000F03D018F82010FE29EBD10024346074600127B46011E0E9
:205BCC00FF280ED005EB80000B787268C0F8946007FA03F0104370600A680A49304606F0F3
:205BEC0049FA641CB8F1000F04D008EB84010878FE28E5D1484601F0AFFF3046BDE8F883B3
:205C0C00B0300020007FC7672DE9F8432020EFF3118780F31188214CA068012108F0C6FD62
:205C2C004FF001094FF0000865692168A4F81C906A1A2168A4F81E80461B401A904227D35B
:205C4C0087F3118840464519361A4846294601F081F8B042F7D92021EFF3118781F3118800
:205C6C00E18B012903D14046294601F073F8B0F1FF3F06D0A169801B814238BF081C4119CB
:205C8C0001E0A069291807F041FCA4F820902560A4F81C8087F31188BDE8F883B425002064
:205CAC001CB50020772101F05FFA002808BF00243FD0D0206946012208F019FB002835D0E8
:205CCC009DF80000582831D1F5206946012208F00EFB00282AD09DF8000038BB55208DF815
:205CEC00000069460122F42006F006FAF0B1F4206946012208F0FBFAC0B19DF800005528C5
:205D0C0014D1B6208DF8000069460122E02006F0F3F958B1F4206946012208F0E8FA28B1E1
:205D2C009DF80000002808BF012400D0002408F085FB20461CBD70472DE9FE4F8046B8F17A
:205D4C00000F01920C9802919B46009005D0081C03D0101C01D0009810B90220BDE8FE8F6F
:205D6C001948017800252C4629E0A00038F800A04FF6FF7708EB000657451CD0B778D7B13A
:205D8C000198029A594608F030F95FEA000912D0780806D3009B504601214A4601F09AFB0C
:205DAC000543B078800806D33088009B02214A4601F090FB054304480178641CE4B2A1427E
:205DCC00D3DC2846BDE8FE8FFC080020F8B50F4601464C688E683846203804F10C0432D074
:205DEC00401E2CD0401E27D120781578012814BF19491A49FF2D41EA05011BD0D4F890005D
:205E0C0001F046FE98B93068B0F1804F14BF23220B22D4F89000294606F016F9D4F8900077
:205E2C0094F8811002F092FC84F8815012E04FF0FF30F8BDFF25F1E76FF00100F8BD002026
:205E4C0084F89800F8BD21780020012908BF012084F898000020F8BD0004C0A000200080B5
:205E6C0038B5234D401E02D0401E30D038BD08F0FDFAC00823D32C78FF2C22D001206946F8
:205E8C0007F086F89DF8000068B9A4B105F1080008F076FC002005F0D9FE00200222014697
:205EAC0007F068FE07E034B9012005F0CFFE05F1080008F063FC9DF80000287038BDFF202C
:205ECC0028700120FF21024607F054FE38BD0220694607F05DF89DF800002C46410001EB06
:205EEC00C001618004F1080002F038FE38BDC04688250020FEB5044622481646089FC06974
:205F0C00618250F821201C4800681D4690420DD01B480068009000220191184E0292318869
:205F2C008F23384607F046FB0120FEBD084603F0B3FFA66068696060286AB0F1FF3F08BF4F
:205F4C00FF2020740026E660288B00280EBF301C0120E0600146A88C10B141F00200E06012
:205F6C00204602F0A3FC0346384607F0B7FE002814BFD81C301CFEBDFCF2000084F3000050
:205F8C00E8F200003824002080B5406800F10802C0F8A8100868C2F8A4004868C2F8A80077
:205FAC008868C2F8AC00C8681A49C2F8B000D2F8A87097B9D2F8A000007C400040F00100F9
:205FCC0041F8040C022010700B68DB0917D2D2F8B020022A17D30B2216E0D2F8A000007CD1
:205FEC000127400041F8040CD2F8A4001770431CC2F8A430007848600868C00902D34FF095
:20600C00FF3080BD022003220A6008F04BFB002080BDC0460428004022482DE9FE4F801EDF
:20602C00028880465FFA92F1100100F47042801A1FFA80FBB8F80200C5B241185FFA81FAED
:20604C000021AA45019124DBAAEB0506761CA8420CBF04240024AA45D8BFA34513DD284694
:20606C0021466A4608F0B6FA0427E94619F8011B019805F0F9FB7F1E0190F7D1241DA4B2BF
:20608C00B4F5805FE7DBB8F802006D1C761EEDB2DDD10198002105F0E7FB002105F0E4FB08
:2060AC00BDE8FE8F521800202DE9984308F002FA1F4CDFF87880814604F1E000007850B9DC
:2060CC004446A0680146022088470746102003F071FC2FB320E001F0ADFF002820460FD120
:2060EC00144909683222B2FBF1F101B9012100F13004204608F066FB204607F049FE0FE090
:20610C0044460022A16880F8E020022088470746102003F04FFC1FB1A06801460320884789
:20612C00484608F007FBBDE89883C04664F200008C1A002010F30000F8B50D461F4C204912
:20614C000728164638D8DFE800F0192C2A2826242104284606F0ACFE071C2DD0616804F1EF
:20616C001700884202D0606807F054FB384631462A46FFF7AFFC67602570F8BD082D1BD11A
:20618C0030680F34206077686760F8BD0C46153408E00C4606E0643404E04F3402E03A3433
:2061AC0000E0253420460021152200F0E5FC204631462A46FFF78EFCF8BDC04674160020D9
:2061CC00ED16002070B51F4CA568064607F08EFB4FF47A71401B4843050C06F055FA216933
:2061EC00401A48BF404240F6B831AD19A94211D306280FDAA268E1688A420BD8206848B162
:20620C00891A114A51438A0C02EB1141884288BF011C08E00D49486840080ED208687D21B9
:20622C0000F0FF004143C82905D3B1F57A6F88BF4FF47A6103E0C82101E04FF4FA61084689
:20624C0070BDC0462835002040420F00AC3F00502DE9F04107467868051DD0F8BC00A8B341
:20626C0008F028F91A4E00248046F46004203060022008F017FA2B68D5F8A410384622467A
:20628C009847022005F060FA09E081692B6822463846C5F8B8109847022005F055FAD5F8BF
:2062AC00B800D5F8BC108142EFD12046C5F8A4002C71C5F8B800C5F8BC00064B3460384649
:2062CC001C6003F07BFA404608F034FABDE8F08104280040100405421CB5204C401E02D0D8
:2062EC00401E2ED01CBD08F0C1F800091DD36078FF281DD00120694606F0CCFB9DF80000A5
:20630C0030B19DF80000012817D10121617007E0002006226070014607F044FC4FF0FF310B
:20632C0004F10C00FFF79CFA07E0FF20641C20700120FF21024607F035FC002006F044FAA9
:20634C001CBD0220694606F0A5FB9DF80010A41C480000EBC10020801CBDC046180C0020D5
:20636C001FB5204C002834D0012822D0022837D1022002A904F03EFF21467E209DF8092097
:20638C00C8619DF808404A76052C0C7614BF022004208876887E01F11C048DF80800216833
:2063AC000DF1090302AA01201960052104F032F916E00120694604F01DFF9DF8000021466A
:2063CC000DF10102144601F11C0388762168196006E021460020203104F00CFF03F07AFB20
:2063EC0000901FBD6C2400202DE9FC4108AF38881D4690460E46002818BF0B2033D10846A2
:20640C00694605F097FF012804D1002028800120BDE8FC81BDF800004AF601410024401A78
:20642C0016D0401E0BD0401E1CBF2C800A2419D102202880F06800884146088012E0052064
:20644C002880F068026841460A600079087109E006F0D4FB0548083002782A80F1684046AD
:20646C00FFF738FB2046BDE8FC81C046B01F0020F8B5001D84B214F0030002D0241A241D12
:20648C00A4B207F0CEF801461948102C47680160C8BF8768388800221646C30BDD0319D19D
:2064AC0026B984420ADD3A46012617E01388C3189BB29C42138011DC174618469FB1001B5F
:2064CC0080B20428B4BF3C88385344F400443C803F1D08E080F40040002680B2C719388868
:2064EC000028DAD10027084607F026FC3846F8BDAC1B0020B0B50446A768ADF1280D27BBA2
:20650C000C20FFF7B5FF071C16D0684600212422082307F0EDFF002306976A466168ADF88F
:20652C0010301448059304F053FC386038B907F0F8FB384605F012FC6FF0030018E0E06842
:20654C0078602069B860A7600AE007F06AF80546386806F00DFE2069B860284607F0ECFB93
:20656C003868616808F02EF9386807F011FC00200AB0B0BDD1E30000B0B514460F4607F0DD
:20658C0099FF85B219480068007808B906F078FF87B1384605F0F9FE40B114B14FF0FF30EB
:2065AC0020700820FDF7E0FC002419E038687968BA6803E04FF480700122014604F0B2FD64
:2065CC000B49012008600B4908684008FCD30A4800684168022088470CB1002121700446EA
:2065EC00284608F0A7F82046B0BDC04674F20000A802504208800240CC010010F8B51F4C50
:20660C000546207E012802D9401F1FD023E0012803D107F055FC061C0DD0207E617E00F07F
:20662C00A3FD061C07D0207FA27E294607F05FFE064607F003FF012E0DD0FF210020A27E82
:20664C00824208DD2954401CC0B2F8E7E169A27E2846FFF73FFAA67E241D284632462146A2
:20666C0006F0C4FB002700B1012727B1204629463246FFF72FFA3846F8BDC0466C2400202C
:20668C00F8B50E46044607F0ADFD0546304605F0CDFD071C03D1284604F0E4FE26E0F87FCA
:2066AC0010F0070F1BD113487968884202D079682166786010A090E8060004F158072846C4
:2066CC0087E8060004F0CEFE04F138004FF0FF31FDF7E8FD04F1680696E80300F8BD2846FD
:2066EC0004F0C0FEF87F10F0070FFBD102200021F8BDC04631910000020000000000007051
:20670C001CB51E4C401E02D0401E2BD01CBD07F0ADFE40081AD36078FF281AD00120694640
:20672C0006F0F6FB9DF8000038B900200422014607F02CFA4FF0FF3100E0012104F10C00C4
:20674C00FFF78EF89DF80000607007E0FF20641C20700120FF21024607F018FA002003F091
:20676C00C7FD1CBD0220694606F0D2FB9DF80010A41C480000EBC10020801CBD8011002059
:20678C0070B507F09DFB002832D003F041FB88B301200C2100F0E8FC60B3184C0F20211D9F
:2067AC00012208700E460A2005F0A6FC1248006842F21071B1FBF0F000F046FD1020032292
:2067CC0004F10E0107F093FD06F10A0550B128786B78AA788030208103F18000608102F1DD
:2067EC008000A08101220B203146227105F084FC07F024FE70BDC04610F300000424002088
:20680C00B0B517491C481D4A0F68C0691549C2F8080DD2F8083D99420ED06FB1124B1B6847
:20682C0000240F2C2CBF1D1C0D68091D641C05607F1E00F10400F4D10D48D2F80C7D0B4DF2
:20684C000168202427F47F4000EB01202918C2F80C1D084B82F8224D1868C2F8140DB0BD71
:20686C00ECF2000010100000FCF200000000FA0500F30000F4F200003824002000E000E00C
:20688C0070B50D461B4A1A4904462B4605F023FA2061284607F022FA40BB1848012200213E
:2068AC00A568036822751448A161002D18D4A1688A408069A168E26007F020FE206407F0AF
:2068CC00A9FCEFF311850646202080F31188204607F0ECF985F31188304606F0A1F805E0BA
:2068EC00E160C0182146206406F03AFE002070BDA5D5000093AA0000C023002024F300003C
:20690C00F8B50E4605461446A969EA691F462046FFF7E0F864602FB1EA69204639460823C0
:20692C0003F0FCF8E468D6B9E8686969AA68079B07F020FE071C08BF002020D007F00EFEA1
:20694C0069683960696849687960696849680F6069684F6007F066FC07F1080605E06A69DE
:20696C0030460021083A00F007F92868B0F1FF3F18BF3060286908B1616831503046F8BDAD
:20698C002DE9F043ADF13C0D07F044FC1A4C184D002680461C3C684600213C22082307F026
:2069AC00D1FD54F8042F6868AF6806902B680897694605920F480493002203F0F5FA071C74
:2069CC0010D006F02EFE8146384602F0E5FC48B1484607F0B1F92D1D761CDCD0404606F065
:2069EC001FF801E003F0F4F90FB0BDE8F083C04604E80000B1E00000B81B00201CB51D4C2C
:206A0C00401E02D0401E28D01CBD07F02FFD80081AD36078FF281AD00120694606F018FAB2
:206A2C009DF8000038B900200422014607F0C6F84FF0FF3100E0012104F10C00FEF710FF0C
:206A4C009DF8000060701CBDFF20641C20700120FF21024607F0B2F81CBD0220694606F0F3
:206A6C00F7F99DF80010A41C480000EBC10020801CBDC046CC0E00201CB5042006F058FC09
:206A8C00022818D0032816D016480068C0F38150032814BF41F288324FF47A721248144CA9
:206AAC00016854342046B2FBF1F107F08BFE204607F06EF91CBD03200C4C009000214FF05C
:206ACC0040521C23204602F0C1FE012000214FF4007209230090204602F0B8FE022004F0EB
:206AEC0033FE1CBDB43F005010F3000000A00C408C1A00202DE9F84305F03AFD1A4D4FF065
:206B0C00FF3105F10C00FEF7ABFE1848144E154F04684FF47A79B6FBF4F81AE0012003F026
:206B2C00E7FB404600F090FB0DF10200694600F0ADFE002003F0DCFB002004216A4601F04C
:206B4C0081FD688809FB00F0801BB0FBF4F000F07BFB68780128E1D0B7FBF4F0F7E7C04603
:206B6C003832040000A3E1118011002010F30000002213460A46194671B510F0030F0BD015
:206B8C00002A82BF00F8011BB2F1010210F0030FF6D1002A08BF71BD11F0FF0141EA01217E
:206BAC00042A18D341EA0141082A0FD30E46102A08D30C460D46B2F10F0312F00F0272C027
:206BCC00103BFCD812F0080F18BF42C012F0040F18BF40F8041B12F0020F18BF20F8021B36
:206BEC0012F0010F18BF017071BD70470246184808B50068C0F3046007F05DFB00EB22709A
:206C0C00401C162805DA10F10A0FB8BF6FF0090000E015200F49104B00F01F0040F4F850A3
:206C2C0008801868800803D20C490020086001E042F040620A49D00E930E80F0010000F01E
:206C4C000100086083F0010000F00100886008BDB81200506E6208400000094094042A432D
:206C6C0000002043FEB51C4D0C462D1FE968064607F000FA40082CD330460821002206F05F
:206C8C0011FB0746019727B32A4602F120001021083207F0AAF908254089ADF80250ADF803
:206CAC00000022783A702188019809124170A17881706188231D0912C1701968051D3046DE
:206CCC002960694606F0A0FC18B168461B2106F0F7FA06F083FEFEBD5018002010B51C4C5D
:206CEC0000202070FEF7A8FE18B1207840F00100207000F067FE18B1207840F002002070A3
:206D0C00FEF7CEFF18B1207840F00800207002F081FA18B1207840F00400207001F070FA8F
:206D2C0018B1207840F01000207003F081FA18B1207840F02000207007F04EF9002808BF3A
:206D4C00207803D0207840F04000207010BDC0465C3500202DE9F04780461A481A4C00685D
:206D6C002418204607F032FD0E464FF0FF374FF0000A814621E04D46284607F02BFD81467E
:206D8C00A88A012819D1B8F1010F0ED1E86886420BD12869002808BFA5F814A002D0E96822
:206DAC004018E860A969E8698847A88A012804D1E868801B874288BF071C4C45DBD13846EC
:206DCC00BDE8F0870CF30000B425002038B5054601201A4C68712879B0B906F022FC217844
:206DEC00002904BF6FF00704051C15D0491EC9B2217039B906F0A0FF606804F09DFE0020BA
:206E0C00687118E0054613E006F00BFC05462078FF2805D16FF00604284606F08DFF0BE036
:206E2C00401CC0B20128207002D1606804F09BFE284606F081FF0024204638BD3C260020B2
:206E4C0070B50646B079F5680B28A5F108052CDA30790B2829DA06F0E4FB154CB279910082
:206E6C000C3401EBC20161184968E1B106F064FF30792870B0796870307AA870B17988004C
:206E8C0000EBC1002018F1684068083005F058F8B179880000EBC10024186068406800F08A
:206EAC005BFE002070BD06F047FF6FF0020070BD181C002038B519491A4C00204822C1F80A
:206ECC00F30F94F8E200C1F8FF2F20B3012817D0022807D003281ED151F8310C00F05EF885
:206EEC000B2016E051F8315C2846FBF7DDF840F2FF50A84202D8801CA842F1D2082008E0BC
:206F0C0051F8310C00F0DCFF054800780028E7D0052084F8E400FBF757FB38BD39400C40ED
:206F2C0072F200008C1A00202DE9FC411A4C4FF0050804F11400002604F11C052860102217
:206F4C0084F8188004F120076676314666610420A0763846FFF710FE102130463A4603F005
:206F6C0059FBA07E8DF8000029680DF101006A4601600120414603F04DFB207E8DF8000067
:206F8C00607E6A468DF801000220014603F042FB05F034FEBDE8FC816C24002038B51A4CEC
:206FAC00A0F5C060D4F8B810C4F8D4000029B8BF49420028B8BF4042814220DAB4F8BC007B
:206FCC00124D30214FF47F4208230090284602F03DFCB4F8C00004214FF4F802122300900A
:206FEC00284602F033FCB4F8D00020214FF440620A230090284602F029FC012000E00020F1
:20700C0084F8D80038BDC0468C1A002000A00C402DE9FF410E460546194C7188E08A8142E3
:20702C000CDCB188814209DBF088218B884205D13089618B884208BF18271DD0052003F03E
:20704C0017FA7788B388ADF80270F288ADF804303189ADF806208046ADF80810A08AADF898
:20706C000000684607F09CF9071C05D1A57304F1F000414603F0CCFD38460090BDE8FF815E
:20708C00FC0800202DE9FC4117460E4605464FF0020802F035F918BB04F034FE00BB05F05F
:2070AC00FF04C4F58074B44288BF341C8DF800808DF80350280C8DF80100280A8DF8020037
:2070CC0006F03AFF6846042104F0B6FB361B651920B93846214604F0AFFB20B106F022FFEA
:2070EC000020BDE8FC8106F01DFFE719002ED0D10120BDE8FC8170471A4898B5D0F8781266
:20710C0003680F0F03F0FF03802B28BF002302F079FB4FF0FF3478B1401E07D0401E012873
:20712C0002D9801E19D01AE0BFB118E0381C12D0801E14D1143311E03846401E0BD0801E39
:20714C0007D0001F03D0401E09D1163306E0152405E0142403E00A2401E00A335CB22046FA
:20716C0098BDC046A010005070B50D461549194C134A09680646241F04F11400B2FBF1F178
:20718C00FDF790F8002808BF002017D00E4805700E4D20682978B1420CD02E7007F001FAC3
:2071AC0006F0F0FA2878012804BF0948206105F095FC2060002100B10121084670BDC0460A
:2071CC0020A1070010F300005E3500205A350020A2F200007C3400202DE9F84305F004FACE
:2071EC00184D4FF0FF3105F10C00FEF739FB1348134F046843F698264FF47A79B6FBF4F891
:20720C0016E004F063FF404600F01EF80DF10201684602F00FFD002004216A4601F0E6F918
:20722C00688809FB00F0801BB0FBF4F000F00CF868780128E5D0B7FBF4F0F7E710F300000B
:20724C0000A3E111CC0E002070B5021CADF1380D2ED0184904A86B4605F0CEFB2024EFF3CD
:20726C00118504A8039084F3118806F0D3FF064607F06EF9029004F00FF9039800F03AFB5D
:20728C00684607F063FA0298C0F818D085F31188304605F0C5FBEFF3118384F31188039849
:2072AC0007F08CFA0021039183F31188029881610EB070BDE5D60000F8B5174A174B184C8B
:2072CC00121D22F003019C4621605E1A2068256860606768A660002001E025F8020BAB42C0
:2072EC00FBD84FF6FC75B3102A4001EB830323F8040CACEB0202E82315403B80EC3DA1F8B7
:20730C00E850E83144F8081CFFF7B2F844F8040C606844F8080CF8BD5F35002028420020B9
:20732C00B81B002038B504461848174DC03002686B68C2F30351C2F303405B0813D22B684A
:20734C001D0511EB257103D41029A8BF0F2100E000211B0410EB237303D4102BA8BF0F236A
:20736C0000E00023184640EA011002F47F4102F0FF03222C41EA004143EA010024BF02F0FE
:20738C008042104338BDC046AC3F0050B812005030B5401E4FF00004ADF12C0D0AD0401EE7
:2073AC0004D0401E20D1FBF70FF91DE001F0FAF9044619E001A821462422082307F098F878
:2073CC0006940D4DADF8144009490794012201AB05F1780004F012F8064A23462C2105F190
:2073EC009C00009303F014FB20460BB030BDC0464D7D0000C16E00008C1A002038B5184D2B
:20740C001549686904F088F9FF20A87000242C7068216C700120FFF7A7FED0B12946802014
:20742C00012208716B20091D04F066FE07F006F80C480A490068B1FBF0F0FFF705FF00F021
:20744C00DFFE041C05D002F017FCFFF799F902F0AFFF204638BDC04607000080A086010012
:20746C000424002010F3000038B50546880F26D303F076F8124806F081FF1548801C00784B
:20748C00012803D005F1380000F066FB0D4800240460022004F058F91120FCF765FD287CF7
:2074AC0010B90E20FCF760FD0748084A04721178447221B11470C830042106F0EBFB38BDDF
:2074CC001145000000000460381400205835002038140020F0B50E4615461C460746ADF1C0
:2074EC001C0D4FF6FF7103AA05F0DCFE0246059212B300200090BDF80C000DF1120329468F
:20750C000190FF2002903846A047041C0FD16889ADF81000700804D3384604A906F074F836
:20752C0003E0384604A906F095FE041C05D004A81B2105F0C5FE00E01524204607B0F0BD30
:20754C00F8B506AF38881D4614460E46002818BF0B202AD10846694604F0ECFE012803D1EF
:20756C00002028800120F8BDBDF800004AF681210027401A12D0401E0AD0401E1CBF2F8047
:20758C000A2711D101202880F068007820700BE002202880F0680088208005E012222A80AB
:2075AC00F1682046FEF796FA3846F8BD2DE9FF41984607460C461346404606F08FFB0546CB
:2075CC0013B906F0DDFF0346002F12BF381C0F4800681A462146434607F01AF8061C10D149
:2075EC001DB9404606F07AFB58B90A48006800900197074D0294298800223423404605F036
:20760C00D9FF30460090BDE8FF81C04654F300008AF300003CF300002DE9F041054615F8C3
:20762C00017B90460E461CE0B8F1000F05F101050BD0FF2C09D8022015F8011B401E41EA2D
:20764C000424F9D101E0042C02D315F8011B00E0394630462246FFF78FFAA61901E006F8C3
:20766C00010B15F8010B8742F9D115F8014B002CE9D115F8010B2C7800022418D4D1BDE8C2
:20768C00F08170470146184880B5983000688A0CC0F38367C0F38F2022D241F3072100299C
:2076AC000BD54A420021400805D17F0806BF0127381C4FF6FF70521EF5D1002910DD4FF606
:2076CC00FF72400040F00100824207D2780040F001070F2F92BF01200F27101C491EF0D135
:2076EC0040EA074080BDC046B8120050164880B507683FB315498B6803EA5300C00E21D26A
:20770C00134A106880081DD2486880081AD21068096810F0050F4FEA114101F0F00101F58D
:20772C00E0710AD1B9420DD2190F38BF40F00100D90E38BF40F0040003E0B94202D920F00C
:20774C000500106080BDC04628500940AC3F0050000009401FB5044602F06AFC50B3164849
:20776C0010300078022804D0032818BF4FF4F02001D14FF4F22010216A4601F0BAFB03F051
:20778C003BFFBDF806006080BDF80400FF2808BF002002A920800968201D0160FF219DF832
:2077AC000C30E1729DF80E206372BDF80C00A2720012207200901FBD1C26002000B540F268
:2077CC001630ADF1140D6946FBF792FB40F213300DF10201FBF78CFB4FF4467001A9FBF7E6
:2077EC0087FB9DF800008DF80600BDF8000000128DF807009DF802008DF80800BDF80200AD
:20780C0000128DF809009DF804008DF80A00BDF8040000128DF80B000DF1060004F030FE13
:20782C0005B000BDF8B502F003FC60B3164E35680024C4F30C00002700B9012748B92846BA
:20784C000F21012203F088FC284600220A2103F083FC204600F092FB3068054647B10A213C
:20786C00012203F079FC284600220F2103F074FC04F58054E00CDCD028460A21002203F03B
:20788C006BFC03F0B9FEF8BD2C05002070B505460C4600204421FFF767FC38B3144E0420B4
:2078AC000222314606F023FDF0B131460A881006000C40EA22200880C00B15D38E1C0120CD
:2078CC000222891C06F013FD70B1B11C0320022206F00DFD31787078B378F27840EA012027
:2078EC00288042EA0320208006F0A8FD70BDC04644350020B0B5184C0546208C002701286E
:20790C001BD1A08BC8B9A068012106F04FFF2168421A23686169C91A91420ED30127A9684B
